{
  "_format": "hh-sol-artifact-1",
  "contractName": "EWordContract",
  "sourceName": "contracts/EWordContract.sol",
  "abi": [
    {
      "anonymous": false,
      "inputs": [
        {
          "indexed": false,
          "internalType": "address",
          "name": "recipient",
          "type": "address"
        },
        {
          "indexed": false,
          "internalType": "uint256",
          "name": "wordId",
          "type": "uint256"
        }
      ],
      "name": "AddWord",
      "type": "event"
    },
    {
      "inputs": [
        {
          "internalType": "string",
          "name": "engword",
          "type": "string"
        },
        {
          "internalType": "string",
          "name": "plword",
          "type": "string"
        }
      ],
      "name": "addEWord",
      "outputs": [],
      "stateMutability": "nonpayable",
      "type": "function"
    },
    {
      "inputs": [],
      "name": "getEWords",
      "outputs": [
        {
          "components": [
            {
              "internalType": "uint256",
              "name": "id",
              "type": "uint256"
            },
            {
              "internalType": "string",
              "name": "engword",
              "type": "string"
            },
            {
              "internalType": "string",
              "name": "plword",
              "type": "string"
            }
          ],
          "internalType": "struct EWordContract.EWord[]",
          "name": "",
          "type": "tuple[]"
        }
      ],
      "stateMutability": "view",
      "type": "function"
    },
    {
      "inputs": [
        {
          "internalType": "uint256",
          "name": "wordid",
          "type": "uint256"
        }
      ],
      "name": "getEngWordPlWord",
      "outputs": [
        {
          "internalType": "string",
          "name": "",
          "type": "string"
        },
        {
          "internalType": "string",
          "name": "",
          "type": "string"
        }
      ],
      "stateMutability": "view",
      "type": "function"
    },
    {
      "inputs": [
        {
          "internalType": "uint256",
          "name": "wordid",
          "type": "uint256"
        }
      ],
      "name": "getPlWord",
      "outputs": [
        {
          "internalType": "string",
          "name": "",
          "type": "string"
        }
      ],
      "stateMutability": "view",
      "type": "function"
    }
  ],
  "bytecode": "0x608060405234801561001057600080fd5b50610fe0806100206000396000f3fe608060405234801561001057600080fd5b506004361061004c5760003560e01c80634787b5ce146100515780636cb58fb91461008157806376f18958146100b2578063d4dc00f0146100d0575b600080fd5b61006b60048036038101906100669190610756565b6100ec565b6040516100789190610813565b60405180910390f35b61009b60048036038101906100969190610756565b6101a3565b6040516100a9929190610835565b60405180910390f35b6100ba610311565b6040516100c791906109de565b60405180910390f35b6100ea60048036038101906100e59190610b35565b6105d4565b005b60606000828154811061010257610101610bad565b5b9060005260206000209060030201600201805461011e90610c0b565b80601f016020809104026020016040519081016040528092919081815260200182805461014a90610c0b565b80156101975780601f1061016c57610100808354040283529160200191610197565b820191906000526020600020905b81548152906001019060200180831161017a57829003601f168201915b50505050509050919050565b606080600083815481106101ba576101b9610bad565b5b9060005260206000209060030201600101600084815481106101df576101de610bad565b5b90600052602060002090600302016002018180546101fc90610c0b565b80601f016020809104026020016040519081016040528092919081815260200182805461022890610c0b565b80156102755780601f1061024a57610100808354040283529160200191610275565b820191906000526020600020905b81548152906001019060200180831161025857829003601f168201915b5050505050915080805461028890610c0b565b80601f01602080910402602001604051908101604052809291908181526020018280546102b490610c0b565b80156103015780601f106102d657610100808354040283529160200191610301565b820191906000526020600020905b8154815290600101906020018083116102e457829003601f168201915b5050505050905091509150915091565b60606000808054905067ffffffffffffffff81111561033357610332610a0a565b5b60405190808252806020026020018201604052801561036c57816020015b6103596106eb565b8152602001906001900390816103515790505b5090506000805b60008054905081101561051a576000818154811061039457610393610bad565b5b9060005260206000209060030201604051806060016040529081600082015481526020016001820180546103c790610c0b565b80601f01602080910402602001604051908101604052809291908181526020018280546103f390610c0b565b80156104405780601f1061041557610100808354040283529160200191610440565b820191906000526020600020905b81548152906001019060200180831161042357829003601f168201915b5050505050815260200160028201805461045990610c0b565b80601f016020809104026020016040519081016040528092919081815260200182805461048590610c0b565b80156104d25780601f106104a7576101008083540402835291602001916104d2565b820191906000526020600020905b8154815290600101906020018083116104b557829003601f168201915b5050505050815250508383815181106104ee576104ed610bad565b5b6020026020010181905250818061050490610c6b565b925050808061051290610c6b565b915050610373565b5060008167ffffffffffffffff81111561053757610536610a0a565b5b60405190808252806020026020018201604052801561057057816020015b61055d6106eb565b8152602001906001900390816105555790505b50905060005b828110156105ca5783818151811061059157610590610bad565b5b60200260200101518282815181106105ac576105ab610bad565b5b602002602001018190525080806105c290610c6b565b915050610576565b5080935050505090565b600080805490509050600060405180606001604052808381526020018581526020018481525090806001815401808255809150506001900390600052602060002090600302016000909190919091506000820151816000015560208201518160010190816106429190610e5f565b5060408201518160020190816106589190610e5f565b505050336001600083815260200190815260200160002060006101000a81548173ffffffffffffffffffffffffffffffffffffffff021916908373ffffffffffffffffffffffffffffffffffffffff1602179055507f671522cfa2688f05436872ff42ab995ee9330783a1d8023ffafe4d9b366050e833826040516106de929190610f81565b60405180910390a1505050565b60405180606001604052806000815260200160608152602001606081525090565b6000604051905090565b600080fd5b600080fd5b6000819050919050565b61073381610720565b811461073e57600080fd5b50565b6000813590506107508161072a565b92915050565b60006020828403121561076c5761076b610716565b5b600061077a84828501610741565b91505092915050565b600081519050919050565b600082825260208201905092915050565b60005b838110156107bd5780820151818401526020810190506107a2565b60008484015250505050565b6000601f19601f8301169050919050565b60006107e582610783565b6107ef818561078e565b93506107ff81856020860161079f565b610808816107c9565b840191505092915050565b6000602082019050818103600083015261082d81846107da565b905092915050565b6000604082019050818103600083015261084f81856107da565b9050818103602083015261086381846107da565b90509392505050565b600081519050919050565b600082825260208201905092915050565b6000819050602082019050919050565b6108a181610720565b82525050565b600082825260208201905092915050565b60006108c382610783565b6108cd81856108a7565b93506108dd81856020860161079f565b6108e6816107c9565b840191505092915050565b60006060830160008301516109096000860182610898565b506020830151848203602086015261092182826108b8565b9150506040830151848203604086015261093b82826108b8565b9150508091505092915050565b600061095483836108f1565b905092915050565b6000602082019050919050565b60006109748261086c565b61097e8185610877565b93508360208202850161099085610888565b8060005b858110156109cc57848403895281516109ad8582610948565b94506109b88361095c565b925060208a01995050600181019050610994565b50829750879550505050505092915050565b600060208201905081810360008301526109f88184610969565b905092915050565b600080fd5b600080fd5b7f4e487b7100000000000000000000000000000000000000000000000000000000600052604160045260246000fd5b610a42826107c9565b810181811067ffffffffffffffff82111715610a6157610a60610a0a565b5b80604052505050565b6000610a7461070c565b9050610a808282610a39565b919050565b600067ffffffffffffffff821115610aa057610a9f610a0a565b5b610aa9826107c9565b9050602081019050919050565b82818337600083830152505050565b6000610ad8610ad384610a85565b610a6a565b905082815260208101848484011115610af457610af3610a05565b5b610aff848285610ab6565b509392505050565b600082601f830112610b1c57610b1b610a00565b5b8135610b2c848260208601610ac5565b91505092915050565b60008060408385031215610b4c57610b4b610716565b5b600083013567ffffffffffffffff811115610b6a57610b6961071b565b5b610b7685828601610b07565b925050602083013567ffffffffffffffff811115610b9757610b9661071b565b5b610ba385828601610b07565b9150509250929050565b7f4e487b7100000000000000000000000000000000000000000000000000000000600052603260045260246000fd5b7f4e487b7100000000000000000000000000000000000000000000000000000000600052602260045260246000fd5b60006002820490506001821680610c2357607f821691505b602082108103610c3657610c35610bdc565b5b50919050565b7f4e487b7100000000000000000000000000000000000000000000000000000000600052601160045260246000fd5b6000610c7682610720565b91507fffffffffffffffffffffffffffffffffffffffffffffffffffffffffffffffff8203610ca857610ca7610c3c565b5b600182019050919050565b60008190508160005260206000209050919050565b60006020601f8301049050919050565b600082821b905092915050565b600060088302610d157fffffffffffffffffffffffffffffffffffffffffffffffffffffffffffffffff82610cd8565b610d1f8683610cd8565b95508019841693508086168417925050509392505050565b6000819050919050565b6000610d5c610d57610d5284610720565b610d37565b610720565b9050919050565b6000819050919050565b610d7683610d41565b610d8a610d8282610d63565b848454610ce5565b825550505050565b600090565b610d9f610d92565b610daa818484610d6d565b505050565b5b81811015610dce57610dc3600082610d97565b600181019050610db0565b5050565b601f821115610e1357610de481610cb3565b610ded84610cc8565b81016020851015610dfc578190505b610e10610e0885610cc8565b830182610daf565b50505b505050565b600082821c905092915050565b6000610e3660001984600802610e18565b1980831691505092915050565b6000610e4f8383610e25565b9150826002028217905092915050565b610e6882610783565b67ffffffffffffffff811115610e8157610e80610a0a565b5b610e8b8254610c0b565b610e96828285610dd2565b600060209050601f831160018114610ec95760008415610eb7578287015190505b610ec18582610e43565b865550610f29565b601f198416610ed786610cb3565b60005b82811015610eff57848901518255600182019150602085019450602081019050610eda565b86831015610f1c5784890151610f18601f891682610e25565b8355505b6001600288020188555050505b505050505050565b600073ffffffffffffffffffffffffffffffffffffffff82169050919050565b6000610f5c82610f31565b9050919050565b610f6c81610f51565b82525050565b610f7b81610720565b82525050565b6000604082019050610f966000830185610f63565b610fa36020830184610f72565b939250505056fea26469706673582212208aaf4c874b6c647a95af91c0ee829fba350231dd7c5b4f1f746503c2c4a4e6ed64736f6c63430008110033",
  "linkReferences": {},
  "deployedLinkReferences": {}
}