{
  "_format": "hh-sol-artifact-1",
  "contractName": "EWordEngContract",
  "sourceName": "contracts/EWordEngContract.sol",
  "abi": [
    {
      "inputs": [],
      "stateMutability": "nonpayable",
      "type": "constructor"
    },
    {
      "anonymous": false,
      "inputs": [
        {
          "indexed": false,
          "internalType": "address",
          "name": "recipient",
          "type": "address"
        },
        {
          "indexed": false,
          "internalType": "uint256",
          "name": "wordId",
          "type": "uint256"
        }
      ],
      "name": "AddWord",
      "type": "event"
    },
    {
      "anonymous": false,
      "inputs": [
        {
          "indexed": true,
          "internalType": "address",
          "name": "owner",
          "type": "address"
        },
        {
          "indexed": true,
          "internalType": "address",
          "name": "spender",
          "type": "address"
        },
        {
          "indexed": false,
          "internalType": "uint256",
          "name": "value",
          "type": "uint256"
        }
      ],
      "name": "Approval",
      "type": "event"
    },
    {
      "anonymous": false,
      "inputs": [
        {
          "indexed": true,
          "internalType": "address",
          "name": "from",
          "type": "address"
        },
        {
          "indexed": true,
          "internalType": "address",
          "name": "to",
          "type": "address"
        },
        {
          "indexed": false,
          "internalType": "uint256",
          "name": "value",
          "type": "uint256"
        }
      ],
      "name": "Transfer",
      "type": "event"
    },
    {
      "inputs": [
        {
          "internalType": "string",
          "name": "engword",
          "type": "string"
        },
        {
          "internalType": "string",
          "name": "engword_pronounciation",
          "type": "string"
        },
        {
          "internalType": "string",
          "name": "engword_explained",
          "type": "string"
        }
      ],
      "name": "addEWord",
      "outputs": [],
      "stateMutability": "nonpayable",
      "type": "function"
    },
    {
      "inputs": [
        {
          "internalType": "address",
          "name": "owner",
          "type": "address"
        },
        {
          "internalType": "address",
          "name": "spender",
          "type": "address"
        }
      ],
      "name": "allowance",
      "outputs": [
        {
          "internalType": "uint256",
          "name": "",
          "type": "uint256"
        }
      ],
      "stateMutability": "view",
      "type": "function"
    },
    {
      "inputs": [
        {
          "internalType": "address",
          "name": "spender",
          "type": "address"
        },
        {
          "internalType": "uint256",
          "name": "amount",
          "type": "uint256"
        }
      ],
      "name": "approve",
      "outputs": [
        {
          "internalType": "bool",
          "name": "",
          "type": "bool"
        }
      ],
      "stateMutability": "nonpayable",
      "type": "function"
    },
    {
      "inputs": [
        {
          "internalType": "address",
          "name": "account",
          "type": "address"
        }
      ],
      "name": "balanceOf",
      "outputs": [
        {
          "internalType": "uint256",
          "name": "",
          "type": "uint256"
        }
      ],
      "stateMutability": "view",
      "type": "function"
    },
    {
      "inputs": [],
      "name": "decimals",
      "outputs": [
        {
          "internalType": "uint8",
          "name": "",
          "type": "uint8"
        }
      ],
      "stateMutability": "view",
      "type": "function"
    },
    {
      "inputs": [
        {
          "internalType": "address",
          "name": "spender",
          "type": "address"
        },
        {
          "internalType": "uint256",
          "name": "subtractedValue",
          "type": "uint256"
        }
      ],
      "name": "decreaseAllowance",
      "outputs": [
        {
          "internalType": "bool",
          "name": "",
          "type": "bool"
        }
      ],
      "stateMutability": "nonpayable",
      "type": "function"
    },
    {
      "inputs": [
        {
          "internalType": "uint256",
          "name": "wordid",
          "type": "uint256"
        }
      ],
      "name": "getAddedEngWordEngExplainedAndPronounciation",
      "outputs": [
        {
          "internalType": "string",
          "name": "",
          "type": "string"
        },
        {
          "internalType": "string",
          "name": "",
          "type": "string"
        },
        {
          "internalType": "string",
          "name": "",
          "type": "string"
        }
      ],
      "stateMutability": "view",
      "type": "function"
    },
    {
      "inputs": [],
      "name": "getEWords",
      "outputs": [
        {
          "components": [
            {
              "internalType": "uint256",
              "name": "id",
              "type": "uint256"
            },
            {
              "internalType": "string",
              "name": "engword",
              "type": "string"
            },
            {
              "internalType": "string",
              "name": "engword_pronounciation",
              "type": "string"
            },
            {
              "internalType": "string",
              "name": "engword_explained",
              "type": "string"
            }
          ],
          "internalType": "struct EWordEngContract.EWord[]",
          "name": "",
          "type": "tuple[]"
        }
      ],
      "stateMutability": "view",
      "type": "function"
    },
    {
      "inputs": [
        {
          "internalType": "uint256",
          "name": "wordid",
          "type": "uint256"
        }
      ],
      "name": "getEWords1",
      "outputs": [
        {
          "components": [
            {
              "internalType": "uint256",
              "name": "id",
              "type": "uint256"
            },
            {
              "internalType": "string",
              "name": "engword",
              "type": "string"
            },
            {
              "internalType": "string",
              "name": "engword_pronounciation",
              "type": "string"
            },
            {
              "internalType": "string",
              "name": "engword_explained",
              "type": "string"
            }
          ],
          "internalType": "struct EWordEngContract.EWord[]",
          "name": "",
          "type": "tuple[]"
        }
      ],
      "stateMutability": "view",
      "type": "function"
    },
    {
      "inputs": [
        {
          "internalType": "uint256",
          "name": "wordid",
          "type": "uint256"
        }
      ],
      "name": "getEngWordEngExplainedAndPronounciation",
      "outputs": [
        {
          "internalType": "string",
          "name": "",
          "type": "string"
        },
        {
          "internalType": "string",
          "name": "",
          "type": "string"
        },
        {
          "internalType": "string",
          "name": "",
          "type": "string"
        }
      ],
      "stateMutability": "view",
      "type": "function"
    },
    {
      "inputs": [
        {
          "internalType": "uint256",
          "name": "wordid",
          "type": "uint256"
        }
      ],
      "name": "getListOfFiveWords",
      "outputs": [
        {
          "components": [
            {
              "internalType": "uint256",
              "name": "id",
              "type": "uint256"
            },
            {
              "internalType": "string",
              "name": "engword",
              "type": "string"
            },
            {
              "internalType": "string",
              "name": "engword_pronounciation",
              "type": "string"
            },
            {
              "internalType": "string",
              "name": "engword_explained",
              "type": "string"
            }
          ],
          "internalType": "struct EWordEngContract.EWord[]",
          "name": "",
          "type": "tuple[]"
        }
      ],
      "stateMutability": "view",
      "type": "function"
    },
    {
      "inputs": [
        {
          "internalType": "address",
          "name": "spender",
          "type": "address"
        },
        {
          "internalType": "uint256",
          "name": "addedValue",
          "type": "uint256"
        }
      ],
      "name": "increaseAllowance",
      "outputs": [
        {
          "internalType": "bool",
          "name": "",
          "type": "bool"
        }
      ],
      "stateMutability": "nonpayable",
      "type": "function"
    },
    {
      "inputs": [],
      "name": "name",
      "outputs": [
        {
          "internalType": "string",
          "name": "",
          "type": "string"
        }
      ],
      "stateMutability": "view",
      "type": "function"
    },
    {
      "inputs": [],
      "name": "symbol",
      "outputs": [
        {
          "internalType": "string",
          "name": "",
          "type": "string"
        }
      ],
      "stateMutability": "view",
      "type": "function"
    },
    {
      "inputs": [],
      "name": "totalSupply",
      "outputs": [
        {
          "internalType": "uint256",
          "name": "",
          "type": "uint256"
        }
      ],
      "stateMutability": "view",
      "type": "function"
    },
    {
      "inputs": [
        {
          "internalType": "address",
          "name": "to",
          "type": "address"
        },
        {
          "internalType": "uint256",
          "name": "amount",
          "type": "uint256"
        }
      ],
      "name": "transfer",
      "outputs": [
        {
          "internalType": "bool",
          "name": "",
          "type": "bool"
        }
      ],
      "stateMutability": "nonpayable",
      "type": "function"
    },
    {
      "inputs": [
        {
          "internalType": "address",
          "name": "from",
          "type": "address"
        },
        {
          "internalType": "address",
          "name": "to",
          "type": "address"
        },
        {
          "internalType": "uint256",
          "name": "amount",
          "type": "uint256"
        }
      ],
      "name": "transferFrom",
      "outputs": [
        {
          "internalType": "bool",
          "name": "",
          "type": "bool"
        }
      ],
      "stateMutability": "nonpayable",
      "type": "function"
    }
  ],
  "bytecode": "0x60806040523480156200001157600080fd5b5060405180602001604052806000815250604051806020016040528060008152508160039081620000439190620002d8565b508060049081620000559190620002d8565b505050620003bf565b600081519050919050565b7f4e487b7100000000000000000000000000000000000000000000000000000000600052604160045260246000fd5b7f4e487b7100000000000000000000000000000000000000000000000000000000600052602260045260246000fd5b60006002820490506001821680620000e057607f821691505b602082108103620000f657620000f562000098565b5b50919050565b60008190508160005260206000209050919050565b60006020601f8301049050919050565b600082821b905092915050565b600060088302620001607fffffffffffffffffffffffffffffffffffffffffffffffffffffffffffffffff8262000121565b6200016c868362000121565b95508019841693508086168417925050509392505050565b6000819050919050565b6000819050919050565b6000620001b9620001b3620001ad8462000184565b6200018e565b62000184565b9050919050565b6000819050919050565b620001d58362000198565b620001ed620001e482620001c0565b8484546200012e565b825550505050565b600090565b62000204620001f5565b62000211818484620001ca565b505050565b5b8181101562000239576200022d600082620001fa565b60018101905062000217565b5050565b601f82111562000288576200025281620000fc565b6200025d8462000111565b810160208510156200026d578190505b620002856200027c8562000111565b83018262000216565b50505b505050565b600082821c905092915050565b6000620002ad600019846008026200028d565b1980831691505092915050565b6000620002c883836200029a565b9150826002028217905092915050565b620002e3826200005e565b67ffffffffffffffff811115620002ff57620002fe62000069565b5b6200030b8254620000c7565b620003188282856200023d565b600060209050601f8311600181146200035057600084156200033b578287015190505b620003478582620002ba565b865550620003b7565b601f1984166200036086620000fc565b60005b828110156200038a5784890151825560018201915060208501945060208101905062000363565b86831015620003aa5784890151620003a6601f8916826200029a565b8355505b6001600288020188555050505b505050505050565b612aef80620003cf6000396000f3fe608060405234801561001057600080fd5b506004361061010b5760003560e01c8063619e54ea116100a25780639d72e6bf116100715780639d72e6bf146102e6578063a457c2d714610316578063a9059cbb14610346578063d84de2bb14610376578063dd62ed3e146103a65761010b565b8063619e54ea1461024857806370a082311461027a57806376f18958146102aa57806395d89b41146102c85761010b565b806325ab7114116100de57806325ab7114146101ac578063313ce567146101de57806339509351146101fc57806349d926b91461022c5761010b565b806306fdde0314610110578063095ea7b31461012e57806318160ddd1461015e57806323b872dd1461017c575b600080fd5b6101186103d6565b6040516101259190611c59565b60405180910390f35b61014860048036038101906101439190611d23565b610468565b6040516101559190611d7e565b60405180910390f35b61016661048b565b6040516101739190611da8565b60405180910390f35b61019660048036038101906101919190611dc3565b610495565b6040516101a39190611d7e565b60405180910390f35b6101c660048036038101906101c19190611e16565b6104c4565b6040516101d593929190611e43565b60405180910390f35b6101e66106e9565b6040516101f39190611eab565b60405180910390f35b61021660048036038101906102119190611d23565b6106f2565b6040516102239190611d7e565b60405180910390f35b61024660048036038101906102419190611ffb565b610729565b005b610262600480360381019061025d9190611e16565b61085e565b60405161027193929190611e43565b60405180910390f35b610294600480360381019061028f91906120a2565b610a83565b6040516102a19190611da8565b60405180910390f35b6102b2610acb565b6040516102bf919061225b565b60405180910390f35b6102d0610e21565b6040516102dd9190611c59565b60405180910390f35b61030060048036038101906102fb9190611e16565b610eb3565b60405161030d919061225b565b60405180910390f35b610330600480360381019061032b9190611d23565b61123b565b60405161033d9190611d7e565b60405180910390f35b610360600480360381019061035b9190611d23565b6112b2565b60405161036d9190611d7e565b60405180910390f35b610390600480360381019061038b9190611e16565b6112d5565b60405161039d919061225b565b60405180910390f35b6103c060048036038101906103bb919061227d565b61163d565b6040516103cd9190611da8565b60405180910390f35b6060600380546103e5906122ec565b80601f0160208091040260200160405190810160405280929190818152602001828054610411906122ec565b801561045e5780601f106104335761010080835404028352916020019161045e565b820191906000526020600020905b81548152906001019060200180831161044157829003601f168201915b5050505050905090565b6000806104736116c4565b90506104808185856116cc565b600191505092915050565b6000600254905090565b6000806104a06116c4565b90506104ad858285611895565b6104b8858585611921565b60019150509392505050565b6060806060600584815481106104dd576104dc61231d565b5b9060005260206000209060040201600101600585815481106105025761050161231d565b5b9060005260206000209060040201600201600586815481106105275761052661231d565b5b9060005260206000209060040201600301828054610544906122ec565b80601f0160208091040260200160405190810160405280929190818152602001828054610570906122ec565b80156105bd5780601f10610592576101008083540402835291602001916105bd565b820191906000526020600020905b8154815290600101906020018083116105a057829003601f168201915b505050505092508180546105d0906122ec565b80601f01602080910402602001604051908101604052809291908181526020018280546105fc906122ec565b80156106495780601f1061061e57610100808354040283529160200191610649565b820191906000526020600020905b81548152906001019060200180831161062c57829003601f168201915b5050505050915080805461065c906122ec565b80601f0160208091040260200160405190810160405280929190818152602001828054610688906122ec565b80156106d55780601f106106aa576101008083540402835291602001916106d5565b820191906000526020600020905b8154815290600101906020018083116106b857829003601f168201915b505050505090509250925092509193909250565b60006012905090565b6000806106fd6116c4565b905061071e81858561070f858961163d565b610719919061237b565b6116cc565b600191505092915050565b600060058054905090506005604051806080016040528083815260200186815260200185815260200184815250908060018154018082558091505060019003906000526020600020906004020160009091909190915060008201518160000155602082015181600101908161079e919061255b565b5060408201518160020190816107b4919061255b565b5060608201518160030190816107ca919061255b565b50505033600d600083815260200190815260200160002060006101000a81548173ffffffffffffffffffffffffffffffffffffffff021916908373ffffffffffffffffffffffffffffffffffffffff1602179055507f671522cfa2688f05436872ff42ab995ee9330783a1d8023ffafe4d9b366050e8338260405161085092919061263c565b60405180910390a150505050565b6060806060600584815481106108775761087661231d565b5b90600052602060002090600402016001016005858154811061089c5761089b61231d565b5b9060005260206000209060040201600201600586815481106108c1576108c061231d565b5b90600052602060002090600402016003018280546108de906122ec565b80601f016020809104026020016040519081016040528092919081815260200182805461090a906122ec565b80156109575780601f1061092c57610100808354040283529160200191610957565b820191906000526020600020905b81548152906001019060200180831161093a57829003601f168201915b5050505050925081805461096a906122ec565b80601f0160208091040260200160405190810160405280929190818152602001828054610996906122ec565b80156109e35780601f106109b8576101008083540402835291602001916109e3565b820191906000526020600020905b8154815290600101906020018083116109c657829003601f168201915b505050505091508080546109f6906122ec565b80601f0160208091040260200160405190810160405280929190818152602001828054610a22906122ec565b8015610a6f5780601f10610a4457610100808354040283529160200191610a6f565b820191906000526020600020905b815481529060010190602001808311610a5257829003601f168201915b505050505090509250925092509193909250565b60008060008373ffffffffffffffffffffffffffffffffffffffff1673ffffffffffffffffffffffffffffffffffffffff168152602001908152602001600020549050919050565b6060600060058054905067ffffffffffffffff811115610aee57610aed611ed0565b5b604051908082528060200260200182016040528015610b2757816020015b610b14611ba1565b815260200190600190039081610b0c5790505b5090506000805b600580549050811015610d675760058181548110610b4f57610b4e61231d565b5b906000526020600020906004020160405180608001604052908160008201548152602001600182018054610b82906122ec565b80601f0160208091040260200160405190810160405280929190818152602001828054610bae906122ec565b8015610bfb5780601f10610bd057610100808354040283529160200191610bfb565b820191906000526020600020905b815481529060010190602001808311610bde57829003601f168201915b50505050508152602001600282018054610c14906122ec565b80601f0160208091040260200160405190810160405280929190818152602001828054610c40906122ec565b8015610c8d5780601f10610c6257610100808354040283529160200191610c8d565b820191906000526020600020905b815481529060010190602001808311610c7057829003601f168201915b50505050508152602001600382018054610ca6906122ec565b80601f0160208091040260200160405190810160405280929190818152602001828054610cd2906122ec565b8015610d1f5780601f10610cf457610100808354040283529160200191610d1f565b820191906000526020600020905b815481529060010190602001808311610d0257829003601f168201915b505050505081525050838381518110610d3b57610d3a61231d565b5b60200260200101819052508180610d5190612665565b9250508080610d5f90612665565b915050610b2e565b5060008167ffffffffffffffff811115610d8457610d83611ed0565b5b604051908082528060200260200182016040528015610dbd57816020015b610daa611ba1565b815260200190600190039081610da25790505b50905060005b82811015610e1757838181518110610dde57610ddd61231d565b5b6020026020010151828281518110610df957610df861231d565b5b60200260200101819052508080610e0f90612665565b915050610dc3565b5080935050505090565b606060048054610e30906122ec565b80601f0160208091040260200160405190810160405280929190818152602001828054610e5c906122ec565b8015610ea95780601f10610e7e57610100808354040283529160200191610ea9565b820191906000526020600020905b815481529060010190602001808311610e8c57829003601f168201915b5050505050905090565b6060600060058054905067ffffffffffffffff811115610ed657610ed5611ed0565b5b604051908082528060200260200182016040528015610f0f57816020015b610efc611ba1565b815260200190600190039081610ef45790505b509050600080600585610f22919061237b565b905060008590505b81600580549050600580549050610f4191906126ad565b610f4b919061237b565b81101561117e5760058181548110610f6657610f6561231d565b5b906000526020600020906004020160405180608001604052908160008201548152602001600182018054610f99906122ec565b80601f0160208091040260200160405190810160405280929190818152602001828054610fc5906122ec565b80156110125780601f10610fe757610100808354040283529160200191611012565b820191906000526020600020905b815481529060010190602001808311610ff557829003601f168201915b5050505050815260200160028201805461102b906122ec565b80601f0160208091040260200160405190810160405280929190818152602001828054611057906122ec565b80156110a45780601f10611079576101008083540402835291602001916110a4565b820191906000526020600020905b81548152906001019060200180831161108757829003601f168201915b505050505081526020016003820180546110bd906122ec565b80601f01602080910402602001604051908101604052809291908181526020018280546110e9906122ec565b80156111365780601f1061110b57610100808354040283529160200191611136565b820191906000526020600020905b81548152906001019060200180831161111957829003601f168201915b5050505050815250508484815181106111525761115161231d565b5b6020026020010181905250828061116890612665565b935050808061117690612665565b915050610f2a565b5060008267ffffffffffffffff81111561119b5761119a611ed0565b5b6040519080825280602002602001820160405280156111d457816020015b6111c1611ba1565b8152602001906001900390816111b95790505b50905060005b8381101561122e578481815181106111f5576111f461231d565b5b60200260200101518282815181106112105761120f61231d565b5b6020026020010181905250808061122690612665565b9150506111da565b5080945050505050919050565b6000806112466116c4565b90506000611254828661163d565b905083811015611299576040517f08c379a000000000000000000000000000000000000000000000000000000000815260040161129090612753565b60405180910390fd5b6112a682868684036116cc565b60019250505092915050565b6000806112bd6116c4565b90506112ca818585611921565b600191505092915050565b6060600060058054905067ffffffffffffffff8111156112f8576112f7611ed0565b5b60405190808252806020026020018201604052801561133157816020015b61131e611ba1565b8152602001906001900390816113165790505b5090506000808481611343919061237b565b905060008590505b600581101561158057600581815481106113685761136761231d565b5b90600052602060002090600402016040518060800160405290816000820154815260200160018201805461139b906122ec565b80601f01602080910402602001604051908101604052809291908181526020018280546113c7906122ec565b80156114145780601f106113e957610100808354040283529160200191611414565b820191906000526020600020905b8154815290600101906020018083116113f757829003601f168201915b5050505050815260200160028201805461142d906122ec565b80601f0160208091040260200160405190810160405280929190818152602001828054611459906122ec565b80156114a65780601f1061147b576101008083540402835291602001916114a6565b820191906000526020600020905b81548152906001019060200180831161148957829003601f168201915b505050505081526020016003820180546114bf906122ec565b80601f01602080910402602001604051908101604052809291908181526020018280546114eb906122ec565b80156115385780601f1061150d57610100808354040283529160200191611538565b820191906000526020600020905b81548152906001019060200180831161151b57829003601f168201915b5050505050815250508484815181106115545761155361231d565b5b6020026020010181905250828061156a90612665565b935050808061157890612665565b91505061134b565b5060008267ffffffffffffffff81111561159d5761159c611ed0565b5b6040519080825280602002602001820160405280156115d657816020015b6115c3611ba1565b8152602001906001900390816115bb5790505b50905060005b83811015611630578481815181106115f7576115f661231d565b5b60200260200101518282815181106116125761161161231d565b5b6020026020010181905250808061162890612665565b9150506115dc565b5080945050505050919050565b6000600160008473ffffffffffffffffffffffffffffffffffffffff1673ffffffffffffffffffffffffffffffffffffffff16815260200190815260200160002060008373ffffffffffffffffffffffffffffffffffffffff1673ffffffffffffffffffffffffffffffffffffffff16815260200190815260200160002054905092915050565b600033905090565b600073ffffffffffffffffffffffffffffffffffffffff168373ffffffffffffffffffffffffffffffffffffffff160361173b576040517f08c379a0000000000000000000000000000000000000000000000000000000008152600401611732906127e5565b60405180910390fd5b600073ffffffffffffffffffffffffffffffffffffffff168273ffffffffffffffffffffffffffffffffffffffff16036117aa576040517f08c379a00000000000000000000000000000000000000000000000000000000081526004016117a190612877565b60405180910390fd5b80600160008573ffffffffffffffffffffffffffffffffffffffff1673ffffffffffffffffffffffffffffffffffffffff16815260200190815260200160002060008473ffffffffffffffffffffffffffffffffffffffff1673ffffffffffffffffffffffffffffffffffffffff168152602001908152602001600020819055508173ffffffffffffffffffffffffffffffffffffffff168373ffffffffffffffffffffffffffffffffffffffff167f8c5be1e5ebec7d5bd14f71427d1e84f3dd0314c0f7b2291e5b200ac8c7c3b925836040516118889190611da8565b60405180910390a3505050565b60006118a1848461163d565b90507fffffffffffffffffffffffffffffffffffffffffffffffffffffffffffffffff811461191b578181101561190d576040517f08c379a0000000000000000000000000000000000000000000000000000000008152600401611904906128e3565b60405180910390fd5b61191a84848484036116cc565b5b50505050565b600073ffffffffffffffffffffffffffffffffffffffff168373ffffffffffffffffffffffffffffffffffffffff1603611990576040517f08c379a000000000000000000000000000000000000000000000000000000000815260040161198790612975565b60405180910390fd5b600073ffffffffffffffffffffffffffffffffffffffff168273ffffffffffffffffffffffffffffffffffffffff16036119ff576040517f08c379a00000000000000000000000000000000000000000000000000000000081526004016119f690612a07565b60405180910390fd5b611a0a838383611b97565b60008060008573ffffffffffffffffffffffffffffffffffffffff1673ffffffffffffffffffffffffffffffffffffffff16815260200190815260200160002054905081811015611a90576040517f08c379a0000000000000000000000000000000000000000000000000000000008152600401611a8790612a99565b60405180910390fd5b8181036000808673ffffffffffffffffffffffffffffffffffffffff1673ffffffffffffffffffffffffffffffffffffffff16815260200190815260200160002081905550816000808573ffffffffffffffffffffffffffffffffffffffff1673ffffffffffffffffffffffffffffffffffffffff168152602001908152602001600020600082825401925050819055508273ffffffffffffffffffffffffffffffffffffffff168473ffffffffffffffffffffffffffffffffffffffff167fddf252ad1be2c89b69c2b068fc378daa952ba7f163c4a11628f55a4df523b3ef84604051611b7e9190611da8565b60405180910390a3611b91848484611b9c565b50505050565b505050565b505050565b6040518060800160405280600081526020016060815260200160608152602001606081525090565b600081519050919050565b600082825260208201905092915050565b60005b83811015611c03578082015181840152602081019050611be8565b60008484015250505050565b6000601f19601f8301169050919050565b6000611c2b82611bc9565b611c358185611bd4565b9350611c45818560208601611be5565b611c4e81611c0f565b840191505092915050565b60006020820190508181036000830152611c738184611c20565b905092915050565b6000604051905090565b600080fd5b600080fd5b600073ffffffffffffffffffffffffffffffffffffffff82169050919050565b6000611cba82611c8f565b9050919050565b611cca81611caf565b8114611cd557600080fd5b50565b600081359050611ce781611cc1565b92915050565b6000819050919050565b611d0081611ced565b8114611d0b57600080fd5b50565b600081359050611d1d81611cf7565b92915050565b60008060408385031215611d3a57611d39611c85565b5b6000611d4885828601611cd8565b9250506020611d5985828601611d0e565b9150509250929050565b60008115159050919050565b611d7881611d63565b82525050565b6000602082019050611d936000830184611d6f565b92915050565b611da281611ced565b82525050565b6000602082019050611dbd6000830184611d99565b92915050565b600080600060608486031215611ddc57611ddb611c85565b5b6000611dea86828701611cd8565b9350506020611dfb86828701611cd8565b9250506040611e0c86828701611d0e565b9150509250925092565b600060208284031215611e2c57611e2b611c85565b5b6000611e3a84828501611d0e565b91505092915050565b60006060820190508181036000830152611e5d8186611c20565b90508181036020830152611e718185611c20565b90508181036040830152611e858184611c20565b9050949350505050565b600060ff82169050919050565b611ea581611e8f565b82525050565b6000602082019050611ec06000830184611e9c565b92915050565b600080fd5b600080fd5b7f4e487b7100000000000000000000000000000000000000000000000000000000600052604160045260246000fd5b611f0882611c0f565b810181811067ffffffffffffffff82111715611f2757611f26611ed0565b5b80604052505050565b6000611f3a611c7b565b9050611f468282611eff565b919050565b600067ffffffffffffffff821115611f6657611f65611ed0565b5b611f6f82611c0f565b9050602081019050919050565b82818337600083830152505050565b6000611f9e611f9984611f4b565b611f30565b905082815260208101848484011115611fba57611fb9611ecb565b5b611fc5848285611f7c565b509392505050565b600082601f830112611fe257611fe1611ec6565b5b8135611ff2848260208601611f8b565b91505092915050565b60008060006060848603121561201457612013611c85565b5b600084013567ffffffffffffffff81111561203257612031611c8a565b5b61203e86828701611fcd565b935050602084013567ffffffffffffffff81111561205f5761205e611c8a565b5b61206b86828701611fcd565b925050604084013567ffffffffffffffff81111561208c5761208b611c8a565b5b61209886828701611fcd565b9150509250925092565b6000602082840312156120b8576120b7611c85565b5b60006120c684828501611cd8565b91505092915050565b600081519050919050565b600082825260208201905092915050565b6000819050602082019050919050565b61210481611ced565b82525050565b600082825260208201905092915050565b600061212682611bc9565b612130818561210a565b9350612140818560208601611be5565b61214981611c0f565b840191505092915050565b600060808301600083015161216c60008601826120fb565b5060208301518482036020860152612184828261211b565b9150506040830151848203604086015261219e828261211b565b915050606083015184820360608601526121b8828261211b565b9150508091505092915050565b60006121d18383612154565b905092915050565b6000602082019050919050565b60006121f1826120cf565b6121fb81856120da565b93508360208202850161220d856120eb565b8060005b85811015612249578484038952815161222a85826121c5565b9450612235836121d9565b925060208a01995050600181019050612211565b50829750879550505050505092915050565b6000602082019050818103600083015261227581846121e6565b905092915050565b6000806040838503121561229457612293611c85565b5b60006122a285828601611cd8565b92505060206122b385828601611cd8565b9150509250929050565b7f4e487b7100000000000000000000000000000000000000000000000000000000600052602260045260246000fd5b6000600282049050600182168061230457607f821691505b602082108103612317576123166122bd565b5b50919050565b7f4e487b7100000000000000000000000000000000000000000000000000000000600052603260045260246000fd5b7f4e487b7100000000000000000000000000000000000000000000000000000000600052601160045260246000fd5b600061238682611ced565b915061239183611ced565b92508282019050808211156123a9576123a861234c565b5b92915050565b60008190508160005260206000209050919050565b60006020601f8301049050919050565b600082821b905092915050565b6000600883026124117fffffffffffffffffffffffffffffffffffffffffffffffffffffffffffffffff826123d4565b61241b86836123d4565b95508019841693508086168417925050509392505050565b6000819050919050565b600061245861245361244e84611ced565b612433565b611ced565b9050919050565b6000819050919050565b6124728361243d565b61248661247e8261245f565b8484546123e1565b825550505050565b600090565b61249b61248e565b6124a6818484612469565b505050565b5b818110156124ca576124bf600082612493565b6001810190506124ac565b5050565b601f82111561250f576124e0816123af565b6124e9846123c4565b810160208510156124f8578190505b61250c612504856123c4565b8301826124ab565b50505b505050565b600082821c905092915050565b600061253260001984600802612514565b1980831691505092915050565b600061254b8383612521565b9150826002028217905092915050565b61256482611bc9565b67ffffffffffffffff81111561257d5761257c611ed0565b5b61258782546122ec565b6125928282856124ce565b600060209050601f8311600181146125c557600084156125b3578287015190505b6125bd858261253f565b865550612625565b601f1984166125d3866123af565b60005b828110156125fb578489015182556001820191506020850194506020810190506125d6565b868310156126185784890151612614601f891682612521565b8355505b6001600288020188555050505b505050505050565b61263681611caf565b82525050565b6000604082019050612651600083018561262d565b61265e6020830184611d99565b9392505050565b600061267082611ced565b91507fffffffffffffffffffffffffffffffffffffffffffffffffffffffffffffffff82036126a2576126a161234c565b5b600182019050919050565b60006126b882611ced565b91506126c383611ced565b92508282039050818111156126db576126da61234c565b5b92915050565b7f45524332303a2064656372656173656420616c6c6f77616e63652062656c6f7760008201527f207a65726f000000000000000000000000000000000000000000000000000000602082015250565b600061273d602583611bd4565b9150612748826126e1565b604082019050919050565b6000602082019050818103600083015261276c81612730565b9050919050565b7f45524332303a20617070726f76652066726f6d20746865207a65726f2061646460008201527f7265737300000000000000000000000000000000000000000000000000000000602082015250565b60006127cf602483611bd4565b91506127da82612773565b604082019050919050565b600060208201905081810360008301526127fe816127c2565b9050919050565b7f45524332303a20617070726f766520746f20746865207a65726f20616464726560008201527f7373000000000000000000000000000000000000000000000000000000000000602082015250565b6000612861602283611bd4565b915061286c82612805565b604082019050919050565b6000602082019050818103600083015261289081612854565b9050919050565b7f45524332303a20696e73756666696369656e7420616c6c6f77616e6365000000600082015250565b60006128cd601d83611bd4565b91506128d882612897565b602082019050919050565b600060208201905081810360008301526128fc816128c0565b9050919050565b7f45524332303a207472616e736665722066726f6d20746865207a65726f20616460008201527f6472657373000000000000000000000000000000000000000000000000000000602082015250565b600061295f602583611bd4565b915061296a82612903565b604082019050919050565b6000602082019050818103600083015261298e81612952565b9050919050565b7f45524332303a207472616e7366657220746f20746865207a65726f206164647260008201527f6573730000000000000000000000000000000000000000000000000000000000602082015250565b60006129f1602383611bd4565b91506129fc82612995565b604082019050919050565b60006020820190508181036000830152612a20816129e4565b9050919050565b7f45524332303a207472616e7366657220616d6f756e742065786365656473206260008201527f616c616e63650000000000000000000000000000000000000000000000000000602082015250565b6000612a83602683611bd4565b9150612a8e82612a27565b604082019050919050565b60006020820190508181036000830152612ab281612a76565b905091905056fea26469706673582212206fb6ee7faa008f0a9f04dc23a54a5a1288cc68ebbcb4df2d656f1fd2c539412e64736f6c63430008110033",
  "linkReferences": {},
  "deployedLinkReferences": {}
}